:020000040000FA
:0400000A9900C0DEBB
:10000000004000200B010000C1000000C90D0000ED
:1000100000000000000000000000000000000000E0
:10002000000000000000000000000000C50000000B
:100030000000000000000000C7000000C900000030
:10004000CB000000CD000000CF000000D100000078
:10005000D3000000D5000000D7000000D900000048
:10006000DB0000008D0D0000DF000000E10000005B
:10007000E3000000E5000000E7000000E9000000E8
:10008000EB000000ED000000EF000000F1000000B8
:10009000F3000000F5000000F7000000F900000088
:1000A000FB000000FD000000FF0000000101000057
:1000B0000301000005010000070100000901000024
:1000C000FEE7FEE7FEE7FEE7FEE7FEE7FEE7FEE708
:1000D000FEE7FEE7FEE7FEE7FEE7FEE7FEE7FEE7F8
:1000E000FEE7FEE7FEE7FEE7FEE7FEE7FEE7FEE7E8
:1000F000FEE7FEE7FEE7FEE7FEE7FEE7FEE7FEE7D8
:10010000FEE7FEE7FEE7FEE7FEE70348854600F070
:1001100001F803E0704700000040002035493648F0
:100120000A1A02D0072291438D46344934480A1AEC
:1001300006D00722914381F30988022282F31488B2
:1001400030483149314A00F043F831483149324AA8
:1001500000F03EF831483249324A00F039F832486E
:100160003249334A00F034F832483349334A00F018
:100170002FF833483349344A00F02AF833483449D9
:10018000344A00F025F834483449002200F02BF8B6
:1001900033483449002200F026F833483349091A1D
:1001A000082903DB00220260043001601F48204957
:1001B000884205D00268043003B4904703BCF7E7D7
:1001C00000208646EC4600200021294A9047FEE7A1
:1001D000884207D0521A05D0037801300B700131E4
:1001E000013AF9D17047884202D002700130FAE733
:1001F0007047000000400020003C0020004000202C
:1002000000400020C82A0100000000200200002059
:1002100074020000740200003A0F0000C82A0100B6
:1002200000000020000000203C0F00003C0F0000F8
:100230003C0F00003C0F00003C0F00003C0F000092
:100240003C0F00003C0F0000C82A0100CC2A01002E
:10025000440100204401002004000020440100204B
:1002600044010020440100204801002048050020EE
:04027000F50900008C
:1002740082B002006B4607331A706B4607331B7853
:100284001A001F231A40044B012191400A001A60EE
:10029400C04602B07047C04600E100E0BFF34F8F94
:1002A400C046044B044ADA60BFF34F8FC046C046D1
:1002B400C046FCE700ED00E00400FA058023DA05FF
:1002C40080235B000021D1508023DB0501221A60CA
:1002D400C0468023DA0580235B00D358002BF8D076
:1002E4008023DA0580235B000021D150A023DB05A5
:1002F4000C49E02212025A50A023DA05A123DB00A4
:100304000949D150A023DA05A323DB00E021090227
:10031400D150A023DA05A323DB000349D150C04602
:100324007047C0460C050000F01F000010B5134ACA
:10033400A223DB000921D150104AA123DB000021B4
:10034400D1500E4A0E4B0021D1500C4AA823DB0099
:100354000C49D1500949C1239B0080225202CA5042
:10036400064A80239B000121D1500920FFF780FF1A
:10037400024B01221A60C04610BDC04600900040E6
:1003840004050000FFFF000084B001900091A02349
:10039400DB051A49E02212025A50A023DA05A123F0
:1003A400DB001749D1501749019A13009B009B1891
:1003B400009A9B18DB005B5803931249019A1300BF
:1003C4009B009B18009A9B18DB00CB1804331B6816
:1003D4000293039B0D33A022D20501219940A1234E
:1003E400DB00D150029B1A1DA023DB0501219140A3
:1003F4000A0002495A50C04604B070470C05000078
:10040400F01F0000E429010082B002006B460733AC
:100414001A70A023DB052A49E02212025A50A023B5
:10042400DA05A123DB002749D1506B4607331B783B
:10043400032B15D01CDC012B02D0022B08D017E0B3
:10044400A023DA05A123DB0080218901D15025E016
:10045400A023DA05A123DB008021C901D1501DE0CE
:10046400A023DA05A123DB0080210902D15015E085
:10047400A023DA05A123DB0080218901D150A02328
:10048400DA05A123DB008021C901D150A023DA05BC
:10049400A123DB0080210902D150C046A023DB0543
:1004A400074A10219950A023DB05054A20219950C1
:1004B400A023DB05024A40219950C04602B0704790
:1004C4000C050000F01F0000A023DB05114A0121E8
:1004D4009950A023DB050F498022D2055A500E4AB9
:1004E400A123DB000021D1500B4A0C4B1E21D1501B
:1004F40009490B4ACD23DB048B50074AB123DB00A7
:100504006021D150044AA023DB000521D150C0460C
:100514007047C0461C050000003000400C05000078
:100524002405000086B00190002305930023049362
:10053400002303933F4B0122DA613E4A84235B008C
:100544000021D1503B4B01221A60C046394A842312
:100554005B00D358002BF9D0364A84235B0000217A
:10056400D150344AA323DB00D3580393314B0122E7
:100574001A62059B01330593039B012B3ADDC046A8
:100584002C4A84235B00D358002BF9D0294A8423B6
:100594005B000021D150274AA323DB00D358DAB2F1
:1005A400019B1A70234B01221A62224B01225A61C9
:1005B400C046204A84235B00D358002BF9D01D4A3F
:1005C40084235B000021D1501A4AA323DB00D258B4
:1005D400019B0133D2B21A70C046164A82235B00D3
:1005E400D358002BF9D0134A82235B000021D15049
:1005F40001231CE00F4B01225A61C0460D4A84239B
:100604005B00D358002BF9D00A4A84235B000021F5
:10061400D150084AA323DB00D3580393019B002243
:100624001A70019B013300221A7001235B421800E7
:1006340006B07047003000401B4B02221A701A4B60
:1006440000225A70184B01229A70174B0122DA705B
:10065400154B02221A71144B01225A71124B0322B8
:100664009A71114B0122DA710F4B00221A720E4B50
:1006740002225A720C4B02229A720B4B0222DA7239
:10068400094B04221A73084B02225A73064B0222A6
:100694009A73054B0322DA73034B02221A74024B3A
:1006A40004225A74C046704770000020244B042270
:1006B4001A70234B00225A70214B03229A70204B4C
:1006C4000022DA701E4B02221A711D4B00225A714D
:1006D4001B4B01229A711A4B0022DA71184B00222B
:1006E4001A72174B01225A72154B02229A72144B3A
:1006F4000122DA72124B00221A73114B02225A732E
:100704000F4B02229A730E4B0222DA730C4B012216
:100714001A740B4B03225A74094B02229A74084B25
:100724000322DA74064B03221A75054B03225A7509
:10073400034B04229A75024B0322DA75C0467047B4
:1007440058000020154B04221A70144B00225A70D2
:10075400124B03229A70114B0122DA700F4B0322C1
:100764001A710E4B02225A710C4B03229A710B4BD5
:100774000322DA71094B04221A72084B04225A72BA
:10078400064B01229A72054B0122DA72034B0122B5
:100794001A73024B03225A73C04670474800002064
:1007A400154B03221A70144B00225A70124B042268
:1007B4009A70114B0122DA700F4B04221A710E4BFE
:1007C40002225A710C4B04229A710B4B0322DA71E8
:1007D400094B03221A72084B04225A72064B012257
:1007E4009A72054B0122DA72034B01221A73024BEF
:1007F40003225A73C046704738000020544B00222D
:100804001A70534B00225A70514B00229A70504B6D
:100814000122DA704E4B00221A714D4B02225A719A
:100824004B4B00229A714A4B0322DA71484B002247
:100834001A72474B04225A72454B01229A72444B56
:100844000422DA72424B02221A73414B04225A7375
:100854003F4B03229A733E4B0422DA733C4B04222F
:100864001A743B4B04225A74394B04229A74384B41
:100874000322DA74364B04221A75354B02225A7558
:10088400334B04229A75324B0122DA75304B042221
:100894001A762F4B00225A762D4B03229A762C4B34
:1008A4000022DA762A4B02221A77294B00225A7741
:1008B400274B01229A77264B0022DA77244B2022F9
:1008C40001219954224B212201219954204B2222A7
:1008D400012199541E4B2322022199541C4B24229A
:1008E400012199541A4B252203219954184B26228D
:1008F40002219954164B272203219954144B282280
:1009040003219954124B292203219954104B2A2272
:10091400032199540E4B2B22022199540C4B2C2267
:10092400032199540A4B2D2201219954084B2E225C
:1009340002219954064B2F2201219954044B302251
:1009440002219954024B312202219954C046704726
:100954000400002000B583B001900A006B46033305
:100964001A70204B1A88204B1B889A4222D11F4BA5
:100974001B785B00019AD3181B7818001B4B1B785B
:100984005B00019AD3185B781900FFF7FDFC174B45
:100994001B780133DAB2154B1A70144B1A786B4674
:1009A40003331B781900100000F090FA0B00DAB240
:1009B4000E4B1A700B4B1B8801339AB2094B1A80E9
:1009C400084B1B881A00084B1B88013319001000C0
:1009D40000F091FA0B009AB2024B1A80C04603B0A1
:1009E40000BDC046840000200000002082000020DA
:1009F40000B599B000231793002314930023139395
:100A04000023129300231193CC4B0193FFF756FC60
:100A140000210120FFF7B8FCFFF7F0FEFFF7C0FE4E
:100A2400FFF790FEFFF708FEFFF740FEFFF74CFDCF
:100A3400FFF77CFCA023DA05A323DB008021490314
:100A4400D150A023DA05A123DB0080214903D15032
:100A5400A023DB05BA49802292025A50B94B0122E5
:100A64001A6060231093B84B00221A60B74B00221F
:100A74001A60002316930023159300210020FFF72A
:100A840083FCA023DB05B24A00219950AF4B052219
:100A94001A60C04642E1AF4B0122DA60A023DA05B6
:100AA400A223DB00D25880239B02134020D1A74B02
:100AB4001B68052B03D0A54B1B68062B18D1C04619
:100AC400A023DA05A223DB00D25880239B02134023
:100AD400F6D09C4B01221A60602310939A4B00229B
:100AE4001A609A4B00221A60002316930023159370
:100AF400964B1B68062B00D910E19A00964BD3182D
:100B04001B689F46019B013B0193002B05DD934B22
:100B14000C211800FFF71EFF00E18C4B06221A601F
:100B2400864B0193FAE0019B013B0193002B05DD09
:100B34008B4B09211800FFF70DFFEFE0834B0522D3
:100B44001A607E4B0193E9E000231B061A0001237F
:100B54001B041900FF231B040B401A431A231B0216
:100B64001B041B0C13438E2213430F930F9B283B30
:100B74001793764B01221A6040231693CEE0794BEB
:100B840001229A6016E0784A159BD3181B78754A9F
:100B940019006B4BD150C046724A8E235B00D35868
:100BA400002BF9D06F4A8E235B000021D150159B96
:100BB40001331593159A169B9A42E4D3694B01228B
:100BC4005A61624B02221A60A8E004210420FFF754
:100BD400DBFB664B1800FFF7A5FC031E00DC9DE061
:100BE400624B1B781A00614B5B781B021B041B0CC5
:100BF4001A435F4B1A605E4B1B685E4A934200D0F7
:100C04008CE0524B03221A6088E00120FFF7FCFBC2
:100C1400564B1800FFF786FC031E00DC7EE0534BA6
:100C24001B781A00514B5B781B021B041B0C1A43E4
:100C34004F4B1A604E4B1B68002B28D1002100201B
:100C4400FFF7A2FB494B1800FFF76CFC474B1B78DE
:100C54001A00464B5B781B021B041B0C1A43444BC3
:100C64001A60434B1B68012B0ED1A023DB054249BC
:100C7400802252035A50374B01225A603F4B0721BE
:100C84001800FFF767FEF9E7304B05221A60384B6E
:100C94001B681A00169B9B1816932C4B04221A608F
:100CA4003CE0374B19211800FFF754FE354B002266
:100CB4001A60159A169B9A4226D02A4B01229A60F2
:100CC4001BE0294A159BD3181B78264A19001C4B94
:100CD400D150C046234A8E235B00D358002BF9D051
:100CE400204A8E235B000021D150159B01331593BC
:100CF400244B1B685A1C234B1A60159A169B9A4264
:100D0400DFD3184B01225A611E4B1B681A00179B34
:100D14009B1A17930D4B03221A60C046094B1B689C
:100D2400012B00D1B7E603210320FFF72DFBA023FD
:100D3400DB051149802252035A50FEE7A0860100C8
:100D44001C050000F0000020FC000020F80000203A
:100D54004407000000900040AC2A01005800002025
:100D640070000020003000403C0F00008C00002088
:100D7400F400002011FF00000C05000038000020E2
:100D8400040000208800002000B583B0FA239B00F3
:100D940001930B4AA0235B00D358012B0CD1084AC2
:100DA400A0235B000021D150FFF778FA044AA02366
:100DB4005B00D3580093009BC04603B000BDC046FF
:100DC4000090004004207146084202D1EFF30880ED
:100DD40001E0EFF30980014A10470000E50D00002F
:100DE40082B001902F4B1B882F4B1A682F4B1A622D
:100DF4002F4B1B78D9B22D4B242299542D4B1B78A1
:100E0400DBB21A00294B9A622B4B1A68274BDA6221
:100E14002A4B1B889AB2254B1A86224B1B889BB2FD
:100E24001A00224B5A63264B1B889BB21A001F4B95
:100E34009A63244B1B889BB21A001C4BDA63224B27
:100E440000221A60C046204B1B68002BFBD0019B7C
:100E54001A68164B1A60019B5A68144B5A60019B1E
:100E64009A68124B9A60019BDA68104BDA60019B16
:100E74001A690E4B1A61019B5A690C4B5A61019B0A
:100E84009A690A4B9A61019BDA69084BDA610E4B45
:100E940000221A60C0460C4B1B68002BFBD002B02A
:100EA4007047C0462CED00E024ED00E00401002072
:100EB40028ED00E029ED00E038ED00E02AED00E047
:100EC40030ED00E03CED00E0000100200A0010D00D
:100ED4000300400800E052008242FCD9002000E0F8
:100EE4005208934200D39B1A40418A42F8D1190018
:100EF400704700207047CA1751408B1A19D0C11788
:100F040006B44840411A48081A0000E052008242E0
:100F1400FCD9002000E05208914200D3891A4041D4
:100F24009A42F8D10CBC53405840C01A5140891A17
:060F340070470020704729
:100F3C0055555555555555554D43555048434D45AB
:100F4C00424C32428E1A010041E006C3BCEC7F4792
:100F5C00A6809473BC9D7273691500000A00020090
:100F6C000000000000000000000000000000000075
:100F7C00E8190100000000008602040000001018AF
:100F8C00001418001818001C1800201800781A00FB
:100F9C00241800781A002818002C18003018003477
:100FAC001800381800781A003C1800401800441833
:100FBC00004818004C18005018005418005818001D
:100FCC005C18006018006418006818006C18007039
:100FDC001800741800781800781A007C1800801813
:100FEC00008418008818008C1800901800941800C1
:100FFC009818009C1800781A00781A00781A00A02B
:10100C001800A41800720200AC1800781A00B0186E
:10101C00007C0200781A00B81800BC1800C0180038
:10102C00C41800C81800CC1800D01800D41800D868
:10103C001800DC1800781A00E01800781A00E41880
:10104C0000E81800EC1800F01800F41800F818006C
:10105C00FC1800001900041900081900781A000C7B
:10106C0019001019001419001819001C1900201966
:10107C00002419002819002C1900781A00301900C6
:10108C00341900381900781A003C19004019004432
:10109C0019004819004C190050190054190058191E
:1010AC00005C19006019006419006819006C1900C3
:1010BC007019007419007819007C190080190084CB
:1010CC0019008819008C19009019009419009819AE
:1010DC00009C1900A01900A41900A81900AC190053
:1010EC00B01900B41900B81900BC1900C01900C41B
:1010FC001900C81900CC1900D01900D41900D8193E
:10110C0000DC1900E01900E41900E81900EC1900E2
:10111C00F01900F41900F81900781A00781A007800
:10112C001A00781A00781A00781A00781A00781ABF
:10113C0000781A00781A00781A00781A00781A00C9
:10114C00FC1900001A00041A00781A00781A0078AA
:10115C001A00781A00081A000C1A00781A00101AD3
:10116C0000141A00781A00781A00781A00781A00FD
:10117C00781A00781A00181A001C1A00781A0078CD
:10118C001A00781A00781A00781A00781A00201AB7
:10119C0000241A00281A002C1A00301A00341A00E5
:1011AC00381A003C1A00401A00441A00481A004C25
:1011BC001A00501A00541A00581A00781A00781A9B
:1011CC0000781A00781A00781A00781A005C1A0055
:1011DC00601A00641A00681A006C1A00701A007405
:1011EC001A00FFFFFFFFFFFFFFFFFFFFFFFFFFFFE7
:1011FC00FFFFFFFFFFFFFFFFFFFFFFFFFFFFFFFFF3
:10120C00FFFFFFFFFFFFFFFFFFFFFFFFFFFFFFFFE2
:10121C00FFFFFFFFFFFFFFFFFFFFFFFFFFFFFFFFD2
:10122C00FFFFFFFFFFFFFFFFFFFFFFFFFFFFFFFFC2
:10123C00FFFFFFFFFFFFFFFFFFFFFFFFFFFFFFFFB2
:10124C00FFFFFFFFFFFFFFFFFFFFFFFFFFFFFFFFA2
:10125C00FFFFFFFFFFFFFFFFFFFFFFFFFFFFFFFF92
:10126C00FFFFFFFFFFFFFFFFFFFFFFFFFFFFFFFF82
:10127C00FFFFFFFFFFFFFFFF00180000BF0204BFCE
:10128C000214BF0224BF0228BF022CBF023CBF02C3
:10129C0040BF0244BF0248BF0200C0020000000C65
:1012AC00180000BF0204BF0218BF0224BF0228BFEF
:1012BC00022CBF023CBF0240BF0244BF0248BF0227
:1012CC000000000018000018000C180014BF0218D1
:1012DC00BF0200BF02060000FFFF00FFFFFF18BFA8
:1012EC0002120000050000FFFFFF461D00FFFFFF7C
:1012FC00FF7F00FFFFFF28BF02060000828000FF77
:10130C00FFFF3CBF02060000010000FFFFFF44BFCF
:10131C000203000077770014BF02060000FF7FFF76
:10132C00FFFFFF5010AFA81804000000A00304003A
:10133C0000005030AFB41804000000B814040000D2
:10134C00006F17210EFF260E018800000000002000
:10135C000000E00200320001202002881400070780
:10136C0001070000E003003AA03E2101002002002A
:10137C0037000020010020810F700100320F0007A0
:10138C000000200000E00200320000020000003CDF
:10139C000D020000000040DA0000FEA00120000059
:1013AC00E0020032002020900188000006A1028893
:1013BC008004780000EB1F0037E2844454A0B499F9
:1013CC0005BAE2844454A0B49906BAE2844454A009
:1013DC00B40006EB476FDEFD07B2AE0188636CE12B
:1013EC0003003A0AD8010000EB0E0037606CE108EC
:1013FC00003A004DEB0A05E80200393420EC0AF003
:10140C00A08B05E9F9FF3E0400376168E101003269
:10141C000086EB0B000719C7BA1905BA0E04E003D6
:10142C00003A0A00E0DBFF3A000006FE07B2AE020B
:10143C00888A0478F5FF370CD0A3E20F4D1C0039D5
:10144C00890278354DBA0A05E80200393420EC0AD5
:10145C00F0A08B05E90F0032254DBA0A05E8020011
:10146C00393420EC0AF0A08B05E90800320C00E0BE
:10147C0006003215CDBA0A05E80200393420EC0A10
:10148C00F0A08B05E98984E854A0B40B00E0E2FFDE
:10149C003A0000069902BA055D788B05E9F7FF3230
:1014AC00C82ADE055D788B05E9F3FF320C00E0F10C
:1014BC00FF3219DDBAEEFF37B015040000005416E8
:1014CC0004000000B814040000009A160400000088
:1014DC00A01604000000741104000000E0140400C5
:1014EC000000F40F04000000809FBE829FBE841F8A
:1014FC00780800FA04A8A90011800018A33E003255
:10150C00A311800001784202B2010220810F5138F0
:10151C00003AB189800110A0B18988218980A41278
:10152C0021948F50040039B189800140A0B1898881
:10153C000B0037318980835878318988628980140F
:10154C000241848F500100393289881200204112E7
:10155C0021910841D13424C1BF9F510525D1BF9F92
:10156C00813424E1BF9F5120B0F1BF9FE28A806794
:10157C000161834078688257E4417983CF500C0035
:10158C003A8200E8E18A88E88F500F003AB18980EE
:10159C000170A0B1898841122121838881132131E6
:1015AC0083880700370001EBE28A880FF99782CF16
:1015BC005002003A110020E18A88E50060E48F5067
:1015CC0032003A0058A30C003AC08980F08A88484F
:1015DC0000DE020032F00F20F08A88F48A80841139
:1015EC0088508A8000F0A0508A882400370000E0E0
:1015FC00220035F08A800000E00C003AC08980F0AF
:10160C008A884800DE020032F00F20F08A88F08AC7
:10161C0080801188508A8000F0A0508A881300378F
:10162C00E08980B080FB811188E08988018A80E2A2
:10163C001321128140820F50010039E18988110079
:10164C0020801321108810508A800000A0508A88B6
:10165C00F08A800000E9F08A88808B80010021905C
:10166C00806001003A10C0A00080FA4F02784F0150
:10167C00BE4F00BE00400600000541E00006C3005E
:10168C00BCEC007F4700A68000947300BC9D0072E8
:10169C0073000100003E7E00007C00FCFF00600037
:1016AC0000CF05B0889FBE8A9FBE8C9FBE8E1F78D0
:1016BC000005782083800000E002003A000D786974
:1016CC000237028021030020D28F9FE38F9F0204F8
:1016DC00BE8005EB2183801107781A01788001EB1D
:1016EC00E80F51E08F5954023E02060108003733CF
:1016FC000037BF0037E500371A0137770137A701EC
:10170C0037D00137EB0137F00220800F574E0236ED
:10171C00020320E0FB2F0F0040721002000000E0DB
:10172C00FB2F0F00400006EB30417821C4B3814FF2
:10173C005111003A90409021C3B2C3C4B390C16917
:10174C0083C070A0419002C16982C07008003A3118
:10175C0083801101780000EB7610020000001D0060
:10176C00200D0D780500370C06E8C10220810F56BC
:10177C00E7FF3A8006EB0C01782183800000EB76C2
:10178C001002000000130020DE01378001EB800600
:10179C00EBF00220800F57D90136020320E0FB2F1B
:1017AC000F0040761002000000030320E2FB2F0F15
:1017BC0001416000B8961202000000400D98510DD6
:1017CC00981FA097AFA0978002B10180B1200D980F
:1017DC00310D981C00204C1598E0FB2F0F0040E8B1
:1017EC000040020120C04A280E1602000000000032
:1017FC00E0060032A0FE2F401598800020000D78E6
:10180C008C0178B50137E406453FA897CFA8975FC0
:10181C00A997EFA997809EBE8296BE2401208000D6
:10182C00EB0801BEC0FA2F0F0040C01102000000EF
:10183C000000200000E0040032D02C21EF989780AB
:10184C008F50040032E0FD2F0F00407481571400BC
:10185C00372A0290BA02904A0390DA03906F90975D
:10186C00FF90970F99979F99970020E101A8E102AB
:10187C00B0E103B8E1EFFF3190FE2F4015987000F6
:10188C0020000D788C0178830678880137FFA897A3
:10189C00D08070F1AF9F820F50FBFF3A0100E0E95E
:1018AC00003A4065210000E00D00322A0990BA0987
:1018BC00900204B00380B00D0278318380208380C5
:1018CC005416020000000000E002003C50FE2FFF06
:1018DC0000379B8B800B00E01200320082200284C8
:1018EC00200001518000EB8016020000005030EF08
:1018FC005230EF0000EB908B883016020000002075
:10190C0083808A13020000003083808A1302000057
:10191C00000000EB3015986011B8620D98730D98AB
:10192C000080EB10159880002010059820002000F6
:10193C000D783083801000E007003A31F12FC18F11
:10194C009F22002081F92F8F804008120200000096
:10195C000B00E00100320060FE1A00906810B470B9
:10196C003EB1EA08900100404083886002200A00E2
:10197C0040060B020000000006781300208006EBE6
:10198C000C00E035013A10F12FC08F9F220020810E
:10199C00F92F8F80403083800812020000002083D2
:1019AC00801007782C1598400020000D782A08909C
:1019BC00BA0890430220830F50E08F5806003E4037
:1019CC000220301598600020100598130020290083
:1019DC00376A0990FA0990E00F51E08F5906003AE6
:1019EC008000203015983000201005981300201E20
:1019FC000037F03D206830B4200120301598800F5E
:101A0C00570100363E1598BA1090000320808F5075
:101A1C000100363015983A13906132B8820F528318
:101A2C008F5A0300396A0890301598050037620008
:101A3C00200500090283D80100533015985000206E
:101A4C001005981300200100378001EB2A6090E804
:101A5C004F400B003A2A10902A0A90BA0A90610360
:101A6C00B8840F53858F5B0100360400788006EB39
:101A7C008E0F50E5003A8207200200E02100323040
:101A8C008380B00090908050E58F501C00362183ED
:101A9C0080B10090810F510100360101782A12901B
:101AAC00848050828F500300313A1190840F511072
:101ABC000036F3CF5001003A8100E94809DEF34FBC
:101ACC005101003A0110B1048240241598C18F9F36
:101ADC0022002081F92F8F80400812020000001391
:101AEC0000203A11908006EB820F57BD00392A1066
:101AFC00900200502015982A0E90BA0E90218380E7
:101B0C00E0FB2F0F0040761002000000000656E0AC
:101B1C00865E2C0D983D0D98BA1190E2FB2F0F01AB
:101B2C00414A0890DA0890961202000000400D9885
:101B3C00510D981A0090000D78E30F50A0003A7CDC
:101B4C0000453A1190E1FB2F8F8040741502000084
:101B5C0000FA58903A609000C070960032B0FE2F98
:101B6C002400370B00E00100320060FE0003EB6044
:101B7C0022B8BA1190E2FB2F0F01410A10909A1073
:101B8C0090BE09020000000006BEE4F92F0F0242CD
:101B9C00BA1190E2FB2F0F01410A10909A1090E6B7
:101BAC000B020000000C15981D1598BA10906A09CC
:101BBC0090FA0990010151E08159620D98730D98CA
:101BCC00310020010D780000E007003D80FE2F4021
:101BDC001598700020000D781300208306786C0097
:101BEC00370000E068003270FE2F4015981300207B
:101BFC00830678650037F03D206830B44A0990DAE6
:101C0C000990C0F12D411422800F51818F591E0073
:101C1C003AD02C21E09F9F2A0090BA00904A019064
:101C2C00DA0190E0979FF1979F829F9F939F9F5F10
:101C3C00A897EFA8977FA9978FB197A09F9FB19F67
:101C4C009FC29F9FD39F9F0003EBD5EA2D0002EB11
:101C5C00230120C2FA2F0F01410800BEBE09020069
:101C6C000000DE150200000002003760FE2F401558
:101C7C00986430EF6830EF800020000D784A1090A7
:101C8C00CF80DEC000DD000020D08F9FE18F9F420F
:101C9C000020A1F92F8F80403083800812020000B1
:101CAC0000A28280B3828030838050120200000038
:101CBC00A00F205183800008B840140200000013CC
:101CCC0000208306781F00378001EB8006EB0E00A6
:101CDC00E01B00322A0990BA09906172B8820F5247
:101CEC00838F5A0500390207780000EB761002004A
:101CFC0000006430EF0E01782183800000EB761039
:101D0C00020000002A0890BA08900E0050E080589B
:101D1C00200D98310D981300208006EB020037132C
:101D2C000020830678F3B79F6814020000000002BD
:101D3C00BEFFB1970300E0020032000D98110D9820
:101D4C000A09909A099002015283815A6A0090FA0A
:101D5C000090800F51818F59210036C0FE2F401505
:101D6C00981A80E9E30F5018003E000020C1FE2FA6
:101D7C00D08F9FE18F9F420020A1F92F8F804030A0
:101D8C008380F4B79F85BF9F081202000000A282D7
:101D9C0080B382803083805012020000000081EBFF
:101DAC002183800000EB7610020000008FBA977F31
:101DBC00B297040D98150D98000DEB6430EF20834D
:101DCC00800000E00300328B8676ADFD3A090037C7
:101DDC000B00E00600326A0190FA019030838050CB
:101DEC0012020000000000FE000DEB00F0A7000046
:101DFC00EA0000E94F00DE0100370000EB4F0778E6
:101E0C004F06BE4F05BE4F04BECF05B10000060005
:101E1C0000FE6022B80300E0A00032C80BDE9E007A
:101E2C003A573E20871F785400F8889FBE8A9FBE81
:101E3C008C9FBE0178A306003A04D8A3020032D1CD
:101E4C0048AF0160A204C0A70160A03B00242D0094
:101E5C002004F0A02C8D200C00E006003204F0A130
:101E6C000B0024E8CF400200324D00201B0024065A
:101E7C0000FA0D06D08C87478E03788B1B78809BDD
:101E8C00BE0F04788004EBDCEA2D0C28E110003244
:101E9C00C22ADD0300328502E9058009B61F7800ED
:101EAC00C8FE852120860120D1E8AFFEFF37020055
:101EBC0037951FBAB59FBA0683E9FCFF3188845762
:101ECC006810F86830EF5500378F05780D06E90C6F
:101EDC008009809FEB0300E9008009B25D780381E3
:101EEC00558001EB8D00D00F00A78000EB0D00D1C9
:101EFC00020009B25B7880DBEB0000E9FBFF3A8162
:101F0C0087570D06E90C8009C70F483A0031C70501
:101F1C00784705788D004560864D640354890378B5
:101F2C00640343E883530700393608E136E0E1FAED
:101F3C00FF343650E136D8E1F8FF312A0037000083
:101F4C0020A10F2062034704F0A73600BEA102882F
:101F5C008D00D18E0378068D20D1E8AFFEFF3702BD
:101F6C000009371B783708BB3798BB8100E9FCFFA9
:101F7C003A6A3221FEB0977FB8970100B88A0350B5
:101F8C000A00201A00A00000EB1A00A7FEFF37047D
:101F9C00A0A70060FE8A1602000000070B78B109AA
:101FAC00B0010B78D1E8A800000000000004B8A331
:101FBC00D1E8AFFEFF3AAC1602000000E203470086
:101FCC0000EB979B46971B480D00D1008046808103
:101FDC0051B2FF31808141A5FF3A00FF23D028B6D2
:101FEC008027EB1E0090AE00900080FA4F06BE4F8B
:101FFC0005BE4F04BE5400F98027EB6830EF00009B
:10200C0006EE8747889FBE8A9FBE8C9FBE8E1F7828
:10201C000006780D80204E83806830EF0020200170
:10202C000020B0B79FC1B79F7A80575015020000AF
:10203C0000D0B79FE1B79FF2B79F83BF9F89002065
:10204C000004EB2E0037CFEA97E9CF42050036109B
:10205C000020960C020000000000EB4B00377FB50F
:10206C00978FBD970D00E97FB3978600600500320E
:10207C008000EB0A00708B8070610540E085486140
:10208C0068B85FB197EFB197000041818049D0B734
:10209C009FE1B79F8A0F508B8F58100039802120F9
:1020AC00010020BFB297808F523000317A80575098
:1020BC001502000000D0B79FE1B79FF2B79F83BF16
:1020CC009F800F55818F5D0100360804E90804E8F4
:1020DC001C0078800F54CFFF39000EE85FB097EFEB
:1020EC00B0970615020000000000E016003A5FB23F
:1020FC0097EFB2974200200300200023200100201C
:10210C00D812020000000000E00C003AE07B200036
:10211C0007474E83885FB097EFB097181402000002
:10212C00000000EB960C02000000100020050037A8
:10213C008904E9DEFF3A1000200100370000EB4F64
:10214C0007784F06BE4F05BE4F04BEEF00B100002E
:10215C00061600FA889FBE8A9FBE8C1F7882047870
:10216C0003057804047802F02B23002082B79F9398
:10217C00B79F0FB1979FB19792BF9FA3BF9F0800C6
:10218C00E001003A7C84570006EB8005EB8802786E
:10219C000B02788A0178090178DA0D020000000040
:1021AC0000E03600321802BE8200200300204023DB
:1021BC0020010020D812020000000000E01E003AAE
:1021CC001802BE1FB897AFB897E00F50E08F580FAA
:1021DC0000320400BE1FB997AFB997820F52838F9C
:1021EC005A0900390B00E01C003A2841909B002052
:1021FC000204E00100354B0020A80490DAFF37827E
:10220C000120030020802120010020D812020000B0
:10221C00000000E00F00321C0020E30F550D0036CB
:10222C002801900205556305550A854424002005B4
:10223C000020380042A8804AE30441C5FF37CCFF98
:10224C002F0100370086EB0C00784F06784F05BE47
:10225C004F04BE0080FA0000060A00FA889FBE8A6E
:10226C009FBE8C9FBE3007984F07986003200100DB
:10227C00209216020000000002BE8005788080E8E3
:10228C000100A18187474E05908000EBC2232003FB
:10229C0000200A0078C01102000000330037004013
:1022AC00EB5047980A0078B04078214798B04078B6
:1022BC00314798104078404798630045104F784A52
:1022CC0040901047982A4090E84F40040032140088
:1022DC00200004E005003D0100378400203E009002
:1022EC000000E01600321E0678E606451E0490AE8D
:1022FC0004908002EB8C01780D01780800BEDA0D99
:10230C00020000000000E00A0032F03D204083880B
:10231C000003EBD5EA2D0002EB8C01780D01780857
:10232C0000BEF60E020000001E0078808555E68582
:10233C0055660040000545E68F55CBFF3E6830EFF3
:10234C00CE07904F06BE4F05BE4F04BE0080FA006C
:10235C000006889FBE8A9FBE8C1F787231EF683052
:10236C00EF6430EF5C30EF5030EF5230EF8F0007FE
:10237C00600E210008EBC08280D18280908788A1FA
:10238C008788A08280B18280450ADDCB02DE85027F
:10239C00724502DD6033B86000B86011B8040250B9
:1023AC00858258060359878359015B21001121D678
:1023BC0001077503070004BE0A02200B82200C845F
:1023CC00200B06560060FE6E0307C28280D382800B
:1023DC004C1ADD4411DE020172C419DE0802508968
:1023EC008258820F52838F5A040036080441898424
:1023FC00491000207E0407C1728001006504003280
:10240C008000EBF082801108980E0037CD02070097
:10241C0000E00B0032F00F204004070C0178800024
:10242C00EB0B00785B040750B0EF52B0EF6030EF6D
:10243C006270EF1004070140FED8FF376022B888A5
:10244C009FBE8A9FBE5400F80500E04220AF8F0269
:10245C0078E482420178A306003A04D8A302003241
:10246C00D148AF0160A204C0A70160A0A10288807E
:10247C0000EBD1E8AFFEFF370300370080E84200E5
:10248C00AF5420EC8301E9290039821A78D100205D
:10249C00F6FF2FF70F203243788301E9050039B29C
:1024AC0048788301E9030039B243780200370430DD
:1024BC00A00420A01004BA9084BA889ABE869ABE52
:1024CC00E30F620B00320683EA87C3EA08056389CF
:1024DC0085630400A70A03BE08057389857304107D
:1024EC00A70A03BE6044B808035389835BEC0F62F0
:1024FC000300328003EB0430A7F60FB2EA82528756
:10250C000073D2FF32A602808622788022780100E6
:10251C00785400F94F05BE4F04BE000006889FBEDC
:10252C00B5EFA910002050200A860F00920120B0B0
:10253C00220A880F0050002064200A8A0F00120023
:10254C002020220A8A0F00A10920320020800720B7
:10255C0053F820804978814978824978227C80021E
:10256C0000A071052060042043F82080497881493F
:10257C0078824978840FABFEFF3A010220227C80DE
:10258C00028060FDFF3208A025292620C88288D948
:10259C008288C88288D9828800C429A08288563053
:1025AC00EF800220508388E202073E6EEF3A6EEF16
:1025BC00270EA8272EA81D0EA91D2EA90001EB5031
:1025CC00220A880D00D8220A880D002126840200D8
:1025DC0078460007401221F082880800BE4F04BEE6
:1025EC000000060000FE6022B80178A306003A0441
:1025FC00D8A3020032D148AF0160A204C0A7016089
:10260C00A0809FBE829FBE5400F8A102880300E008
:10261C002C0032670020E39F53268D200600E00437
:10262C000032F7BF9F0010A704F0A00010A100001B
:10263C00A1D1E8AFFEFF37FFBB978080EB90C0BA0B
:10264C00901FBACF9F600080E86638E105003A9091
:10265C00C0BACF9F609000BACF9F600080E80000A6
:10266C00E04220AF5420EC04F0A7E3835304F0A124
:10267C00CF8FEA04003A070141878151070036E702
:10268C00FF3700D9EB8301E90300328703E9FBFF35
:10269C003AE1FF378F87E95400F94F01BE4F00BE76
:1026AC00BE0904000000889FBE8A1F78000578814F
:1026BC00047818C0B3F00720808F5401003C00440C
:1026CC00EB6104644A44DD0860A008C0A00000204F
:1026DC00C12120010070808B880008EBA82FA80076
:1026EC0000EBF08A88A82FA90002EBA36921000156
:1026FC0020010020000178C11421801321941502BF
:10270C00000000046A218001EB80072001002000FA
:10271C000178E106214012219415020000005002BC
:10272C0020408A88A08988401721308A88004E2151
:10273C00908988808B800808782022EF2822EF2946
:10274C0011886A118804A8A910002074200A520864
:10275C0000B21602000000808B8010F0A04F0578AC
:10276C004F04BE00000660B0BF3A0032CFB897CD20
:10277C0008DE37003A4460AF35003A6210AC3300E3
:10278C003A3600F83200F83400F80000F8849FBEA6
:10279C00869FBE658380A68B80378B80950213370E
:1027AC0083189783184260EF040621840178148201
:1027BC00101B00326200423028E130B0E130B8E149
:1027CC00F8FF33849FBE869FBEB08210308318B052
:1027DC0083184220AF940978548A42540A4B548A85
:1027EC004B260521070020869FBEB01F78B01F78AE
:1027FC000040064260EF4F03BE4F02BE100A9880A5
:10280C0000EBE2FF374F03BE4F02BE0000F934006D
:10281C00F93200F93600F96210A94F01BECF0078E9
:10282C000040068002EB0F00A78082EBE081404263
:10283C0020AF000005851F78801FE8030090020080
:10284C00E14200AF020078230290B303904303905F
:10285C00070343CF00E91A00328403530038E142E6
:10286C0000AFE003500300328702E9058009B45839
:10287C00780620E14200AF430290870350030032F8
:10288C008702E9058009B458788080504F00E00237
:10289C000032930910A40198E303900700E0422052
:1028AC00AE0700010000060002420620E14200AF24
:1028BC00070252000178F1FF37C800DE2600321201
:1028CC0002804811DD4460AF0270A0CF1F7162001E
:1028DC00B84001B0C308AE1A003702F12B2100201A
:1028EC00810171160032801F7800F12B64160200F2
:1028FC000000809FEA00F02B2100206416020000EB
:10290C0000000178CF01E94F00788000EB02F0A6BF
:10291C000230A7060037F4FF218481610480200374
:10292C0021B8020040838048641602000000809F9A
:10293C00BE000006801FEB811F78801F78861F78F1
:10294C00851F78841F78C8150200000068140200E7
:10295C0000008003EB4F8253CF825B4F835BCF0130
:10296C00781400320706219719780B00338419402C
:10297C008599488619498499BE861978CF1978CFDC
:10298C001978000028801978F48B510000068419FE
:10299C00508599588619590200098019EBF4FF37B4
:1029AC00E48757000006889FBE8A1F780004BE0289
:1029BC000578080037080078201602000000000097
:1029CC00E0030032080890D610020000001800E066
:1029DC000F0032681402000000390150A98158BA66
:1029EC000F51AA8F59EFFF36070037681402000009
:1029FC0000390150A98158BA0F51AA8F5904003ED1
:102A0C002002ABF7FF3A1000200100370000EB4F1B
:102A1C0005784F04BE0000060400E021003280025D
:102A2C00786208B83600200500094688D8000141B4
:102A3C000380B00000EBA70280A30288D1E8AFFEB0
:102A4C00FF370100E00C00320402E90200A7060087
:102A5C0037D25ABA0402E90C0039020037B25ABA1A
:102A6C00925ABAC2DABA0281E854A0B4630252F99B
:102A7C00FF31620242020033048009B25ABAA70243
:102A8C0088000006E00140020078200032C3039069
:102A9C003303901302909302530683438403530031
:102AAC0028E14200AE0500788002780538E142004A
:102ABC00AE8702788503E9020039078009315A781C
:102ACC000620E14200AF430290050350030032861A
:102ADC0003E9078009315A78930940940198D3038C
:102AEC00908080500700E04220AE070001000006F5
:102AFC000000E04220AF100005881F78829FBE00C6
:102B0C000478681402000000809FBEF80390070050
:102B1C00E0070032080078E480576881570700010D
:102B2C00E887574F04780000061000201800E0FAE0
:102B3C00FF326814020000007FB997EFB9970200CA
:102B4C00508380585FB997CFB9970200E10388E1B1
:102B5C00F2FF340000EBEDFF370080EA8180EA855C
:102B6C00002006322887DB2E100037B25A78B2527A
:102B7C00780400688400208100D10080D3020039E1
:102B8C000600688780688100D10080D30200390676
:102B9C0000688780680402E9F4FF3AE28151EEFF95
:102BAC003BE28141040032124068440020030020C3
:102BBC00ECFF370080EA8180EA0000060400FA8806
:102BCC001F788A9FBE0003BEB0BF9FC1BF9F020487
:102BDC00780405BE0000EBE00F53E08F5B0B003A6E
:102BEC000F00376A8057501502000000800F558186
:102BFC008F5D030039820F55838F5D0500396404A6
:102C0C00540800E0F4FF3A0000EB010037100020FC
:102C1C004F05BE4F04780080FA0000060000FED17C
:102C2C00E8AFFEFF378046884783806830EF013B72
:102C3C00B8613221B709B08100538A160200000036
:102C4C00B146888000EBB74688D1E8A800000000A8
:102C5C0000000200A6AC16020000008003EB020884
:102C6C00A3D1E8AFFEFF3AD1C8A90200A7AC160267
:102C7C00000000000006A080210100206A0150E045
:102C8C0081580A00326416020000004800DEC808B1
:102C9C00DD010070D22C210000514220AE00000555
:102CAC00100005C0FF2B2100200160A0641602005B
:102CBC0000004C01DEC409DD0301710080EAF4FF61
:102CCC0020040060F0FF371100200F00A701002046
:102CDC000282200700371100200F00A701002000FE
:102CEC0000E04220AF0000050280208009904818C7
:102CFC00DE4220AE000005431ADE0400A1040141AF
:102D0C00EF81611218A50080D2E080401298AD00CE
:102D1C0000060001EB6022B80100E0110032B11F87
:102D2C00E90E0033F3FF20310378CC33DE03036369
:102D3C0002034300A8A51638A50428AD4200AA42F8
:102D4C0020AE1638AD8502E8CF1FE9F3FF3B8F8725
:102D5C00E90400780000065C10000200008000000E
:102D6C005010000400008000005C11000200008084
:102D7C0000007211000200008000006410000200CC
:102D8C000080000066100002000080000068100047
:102D9C000200008000000000000000FED1E8AFFE41
:102DAC00FF37A20280A102880308BBA202889046CA
:102DBC0088A14688200424D0C8A8D0C8AE1084B2FC
:102DCC000001EB513E201A1302000000D1E8AFFEC7
:102DDC00FF37D1C8A9000006889FBE8A9FBE000499
:102DEC00BE6814020000000005BE8001EB0300E089
:102DFC004220AE0140FE6814020000000A02508B13
:102E0C00825804015485815CF6FF314F05BE4F0496
:102E1C00BE0000066783800003EB651621A08B8043
:102E2C00150278170010B4001B34011B94011B64AD
:102E3C0002521520E1F7FF3A0480204400B01490B0
:102E4C00A6000006804B21741602000000ECFF3730
:102E5C000000EBA08B88001621308B88E09C206052
:102E6C0083880006210000E00200326030EF6270BF
:102E7C00EFBC29EFBE29EFD2A9EF20002074200A65
:102E8C005408002528A8BDE9A8000006811F7882F7
:102E9C009FBE8001EB318B806881683119E83199D4
:102EAC0049118949640151328B880180204100B05D
:102EBC001190A141FF200100E04220AE0104014F1E
:102ECC0001BECF0078004006881F780004781801F6
:102EDC00788800780000EB7610020000001808904B
:102EEC000040A1100C981808900050A1100C9818D4
:102EFC0008900060A1100C981000204F047800007E
:102F0C0006A20280A10288F37F208380EA00806001
:102F1C000082EBD1E8AFFEFF3710C2BAB000BA01A5
:102F2C0002628480EA04003A8381E9F9FF31A2024B
:102F3C0088100005A20288000005831F78821F7884
:102F4C00801F78681402000000CF83E86210AC1672
:102F5C000280370278A70278CF1B40CF9B48E01342
:102F6C00490610A76210A9470052D7805A000006E4
:102F7C00300278A00278A7028064184260884AA5C3
:102F8C0002880483E8E0824AD1E8AFFEFF371400E0
:102F9C00BA9480BAA502881601BA9681BAA702889B
:102FAC000000060000000202E905003981017003EF
:102FBC0000A603003704800931587800000682010E
:102FCC00D18301E90300390380093118780200A785
:102FDC003158780000068002EB05087832009841E1
:102FEC00009811009821009853009864009875007F
:102FFC00988080EB010898010028110898000006C1
:10300C006410E2080032600E2187F707A28280B3B9
:10301C0082808301D10281D3001121B4FF0700000B
:10302C00EB000006010621010037820078110178BF
:10303C000200E0040032800F51FAFF3A9008781039
:10304C000005000005D1E8AFFEFF37D1C8A9D2A812
:10305C00EFD4A8EFA1028054A0EFE2FF2F0209BB2E
:10306C00A10288000006AFFE070000E00600320255
:10307C0001FC2017210088EB0C1802000000000056
:10308C00FE000006B04178B1C15103003A0201E9DB
:10309C00FBFF310000050080EB4200AF1000050083
:1030AC0000060182200F00A7018020000990C311A7
:1030BC00DE67016161C0790200DE6100600000061C
:1030CC00C006210000E00400320082204000B01055
:1030DC0090A44200AE000005100005801F7800008F
:1030EC00EBA616020000004F0060A61602000000BE
:1030FC000080EA000006E582801600200500E00250
:10310C000032050001000378060078000006A202D8
:10311C0080A10288D1E8AFFEFF379080BA1000BAC8
:10312C00A20288000006110280C808DD4460AF01CD
:10313C0070A0CF9F700004010201E90200390280E7
:10314C0009015878000006000820CF1F701002807B
:10315C000040066300B88100D10080D3000006A1B6
:10316C0014211120A00000066113211130A00000D1
:10317C0006C14B28BC13040000004800DDCF1F70B3
:10318C0000400624A8A8000006FFFFFFFFFFFFFF7A
:10319C00FFFFFFFFFFFFFFFFFFFFFFFFFFFFFFFF33
:1031AC00FFFFFFFFFFFFFFFFFFFFFFFFFFFFFFFF23
:1031BC00FFFFFFFFFFFFFFFFFFFFFFFFFFFFFFFF13
:1031CC00FFFFFFFFFFFFFFFFFFFFFFFFFFFFFFFF03
:1031DC00FFFFFFFFFFFFFFFFFFFFFFFFFFFFFFFFF3
:1031EC00FFFFFFFFFFFFFFFFFFFFFFFFFFFFFFFFE3
:1031FC00FFFFFFFFFFFFFFFFFFFFFFFFFFFFFFFFD3
:10320C00FFFFFFFFFFFFFFFFFFFFFFFFFFFFFFFFC2
:10321C00FFFFFFFFFFFFFFFFFFFFFFFFFFFFFFFFB2
:10322C00FFFFFFFFFFFFFFFFFFFFFFFFFFFFFFFFA2
:10323C00FFFFFFFFFFFFFFFFFFFFFFFFFFFFFFFF92
:10324C00FFFFFFFFFFFFFFFFFFFFFFFFFFFFFFFF82
:10325C00FFFFFFFFFFFFFFFFFFFFFFFFFFFFFFFF72
:10326C00FFFFFFFFFFFFFFFFFFFFFFFFFFFFFFFF62
:10327C00FFFFFFFFFFFFFFFFFFFFFFFFFFFFFFFF52
:10328C00FFFFFFFFFFFFFFFFFFFFFFFFFFFFFFFF42
:10329C00FFFFFFFFFFFFFFFFFFFFFFFFFFFFFFFF32
:1032AC00FFFFFFFFFFFFFFFFFFFFFFFFFFFFFFFF22
:1032BC00FFFFFFFFFFFFFFFFFFFFFFFFFFFFFFFF12
:1032CC00FFFFFFFFFFFFFFFFFFFFFFFFFFFFFFFF02
:1032DC00FFFFFFFFFFFFFFFFFFFFFFFFFFFFFFFFF2
:1032EC00FFFFFFFFFFFFFFFFFFFFFFFFFFFFFFFFE2
:1032FC00FFFFFFFFFFFFFFFFFFFFFFFFFFFFFFFFD2
:10330C00FFFFFFFFFFFFFFFFFFFFFFFFFFFFFFFFC1
:10331C00FFFFFFFFFFFFFFFFFFFFFFFFFFFFFFFFB1
:10332C00FFFFFFFFFFFFFFFFFFFFFFFFFFFFFFFFA1
:10333C00FFFFFFFFFFFFFFFFFFFFFFFFFFFFFFFF91
:10334C00FFFFFFFFFFFFFFFFFFFFFFFFFFFFFFFF81
:10335C00FFFFFFFFFFFFFFFFFFFFFFFFFFFFFFFF71
:10336C00FFFFFFFFFFFFFFFFFFFFFFFFFFFFFFFF61
:10337C00FFFFFFFFFFFFFFFFFFFFFFFFFFFFFFFF51
:10338C00FFFFFFFFFFFFFFFFCD120E1E040000002A
:10339C00B62B04000000BC2B04000000CE2B040054
:1033AC000000C22B04000000C82B04000000CE2B30
:1033BC0004000000CE2B04000000CE2B0400000003
:1033CC00DE2504000000542704000000C225040080
:1033DC000000CE2B04000000CE2B040000005E2564
:1033EC0004000000CE2B04000000CE2B04000000D3
:1033FC00A42004000000442204000000CE2B040092
:10340C000000CE2B04000000CE2B04000000CE2BBD
:10341C0004000000CE2B040000002C25040000004A
:10342C00CA2804000000CE2B04000000CE2B0400A0
:10343C000000CE2B04000000762504000000CE2BEB
:10344C0004000000CE2B0400000038210400000012
:10345C008E2204000000CE2B04000000CE2B0400B2
:10346C000000CE2B04000000222504000000CE2B0F
:10347C0004000000081F04000000CE2B0400000014
:10348C00CE2B04000000B81404000000CE2B040066
:10349C000000CE2B04000000CE2B04000000CE2B2D
:1034AC0004000000CE2B04000000CE2B0400000012
:1034BC00CE2B04000000CE2B04000000CE2B040009
:1034CC000000CE2B04000000CE2B04000000CE2BFD
:1034DC0004000000BE2104000000D82204000000FB
:1034EC00CE2B04000000CE2B04000000CE2B0400D9
:1034FC000000CE2B04000000CE2B04000000CE2BCD
:10350C0004000000CE2B04000000CE2B04000000B1
:10351C00CE2B04000000CE2B04000000CE2B0400A8
:10352C000000CE2B04000000CE2B04000000CE2B9C
:10353C0004000000CE2B04000000402A0400000010
:10354C00CE2B04000000CE2B04000000CE2B040078
:10355C000000CE2B04000000CE2B04000000CE2B6C
:10356C0004000000CE2B04000000CE2B0400000051
:10357C00CE2B04000000CE2B04000000CE2B040048
:10358C000000CE2B04000000CE2B040000001A25F6
:10359C0004000000CE2B04000000222304000000D5
:1035AC00CE2B04000000CE2B04000000CE2B040018
:1035BC000000CE2B040000004C2304000000CE2B96
:1035CC0004000000CE2B0400000076230400000051
:1035DC00A02304000000CA2304000000F42304000C
:1035EC0000001E2404000000482404000000722483
:1035FC00040000009C2404000000C6240400000009
:10360C00F02404000000CE2B04000000CE2B04009C
:10361C000000CE2B04000000CE2B04000000CE2BAB
:10362C0004000000CE2B04000000CE2B0400000090
:10363C00CE2B04000000CE2B04000000CE2B040087
:10364C000000CE2B04000000CE2B04000000CE2B7B
:10365C0004000000CE2B04000000CE2B0400000060
:10366C00CE2B04000000CE2B04000000CE2B040057
:10367C000000CE2B04000000CE2B04000000CE2B4B
:10368C0004000000CE2B04000000CE2B0400000030
:10369C00CE2B04000000CE2B04000000CE2B040027
:1036AC000000CE2B04000000CE2B04000000CE2B1B
:1036BC0004000000CE2B04000000CE2B0400000000
:1036CC00CE2B04000000CE2B04000000CE2B0400F7
:1036DC000000CE2B04000000CE2B04000000CE2BEB
:1036EC0004000000CE2B04000000CE2B04000000D0
:1036FC00CE2B04000000CE2B04000000CE2B0400C7
:10370C000000CE2B04000000CE2B04000000CE2BBA
:10371C0004000000CE2B04000000CE2B040000009F
:10372C00CE2B04000000CE2B04000000CE2B040096
:10373C000000FFFF00FFFF00FF0000FFFF00FF0085
:10374C0000FFFF00FF0000FFFF00FF0000FFFF0075
:10375C00FF0000FFFF00FF0000FFFF00FF0000FF65
:10376C00FF00FF0000FFFF00FF0000FFFF00FF0055
:10377C0000FFFF00FF0000FFFF00FF0000FFFF0045
:10378C00FF0000FFFF00FF0000FFFF00FF0000FF35
:10379C00FF00FF0000FFFF00FF0000FFFF00FF0025
:1037AC0000FFFF00FF0000FFFF00FF0000FFFF0015
:1037BC00FF0000FFFF00FF0000FFFF00FF0000FF05
:1037CC00FF00FF0000FFFF00FF0000FFFF00FF00F5
:1037DC0000FFFF00FF0000FFFF00FF0000FFFF00E5
:1037EC00FF0000FFFF00FF0000FFFF00FF0000FFD5
:1037FC00FF00FF0000FFFF00FF0000FFFF00FF00C5
:10380C0000FFFF00FF0000FFFF00FF0000FFFF00B4
:10381C00FF0000FFFF00FF0000FFFF00FF0000FFA4
:10382C00FF00FF0000FFFF00FF0000FFFF00FF0094
:10383C0000FFFF00FF0000FFFF00FF0000FFFF0084
:10384C00FF0000FFFF00FF0000FFFF00FF0000FF74
:10385C00FF00FF0000FFFF00FF0000FFFF00FF0064
:10386C0000FFFF00FF0000FFFF00FF0000FFFF0054
:10387C00FF0000FFFF00FF0000FFFF00FF0000FF44
:10388C00FF00FF0000FFFF00FF0000FFFF00FF0034
:10389C0000FFFF00FF0000FFFF00FF0000FFFF0024
:1038AC00FF0000FFFF00FF0000FFFF00FF0000FF14
:1038BC00FF00FF0000FFFF00FF0000FFFF00FF0004
:1038CC0000FFFF00FF0000FFFF00FF0000FFFF00F4
:1038DC00FF0000FFFF00FF0000FFFF00FF0000FFE4
:1038EC00FF00FF0000FFFF00FF0000FFFF00FF00D4
:1038FC0000FFFF00FF0000FFFF00FF0000FFFF00C4
:10390C00FF0000FFFF00FF0000FFFF00FF0000FFB3
:10391C00FF00FF0000FFFF00FF0000FFFF00FF00A3
:10392C0000FFFF00FF0000FFFF00FF0000FFFF0093
:10393C00FF0000FFFF00FF0000FFFF00FF0000FF83
:10394C00FF00FF0000FFFF00FF0000FFFF00FF0073
:10395C0000FFFF00FF0000FFFF00FF0000FFFF0063
:10396C00FF0000FFFF00FF0000FFFF00FF0000FF53
:10397C00FF00FF0000FFFF0000000000000000003F
:10398C0000FFFF00FF0000FFFF00FF0000FFFF0033
:10399C00FF0000FFFF00FF0000FFFF00FF0000FF23
:1039AC00FF00FF0000FFFF00FF0000000000000010
:1039BC0000FF7F00000000FFFF00FF00000500007B
:1039CC00000000000000000000461D000000000088
:1039DC000000000000FF7F0000000000000000005D
:1039EC0000FFFF00FF0000000000000000828000CC
:1039FC00000000000000000000FFFF00FF000000BE
:103A0C000000000000FFFF00FF00000000000000AD
:103A1C0000FFFF00FF0000000000000000FFFF009F
:103A2C00FF0000000000000000010000000000008A
:103A3C000000000000D7FC00FF00000000000000A8
:103A4C0000777700000000000000000000FFFF007E
:103A5C00FF0000FFFF00FF0000FFFF00FF0000FF62
:103A6C00FF00FF0000FFFF00FF0000FFFF00FF0052
:103A7C0000FFFF00FF0000FFFF00FF0000FFFF0042
:103A8C00FF0000FFFF00FF0000FFFF00FF0000FF32
:103A9C00FF00FF0000FFFF00FF0000FFFF00FF0022
:103AAC0000FFFF00FF0000FFFF00FF0000FFFF0012
:103ABC00FF0000FFFF00FF0000FFFF00FF0000FF02
:103ACC00FF00FF0000FFFF00FF0000FFFF00FF00F2
:103ADC0000FFFF00FF0000FFFF00FF0000FFFF00E2
:103AEC00FF0000FFFF00FF0000FFFF00FF0000FFD2
:103AFC00FF00FF0000FFFF00FF0000FFFF00FF00C2
:103B0C0000FFFF00FF0000FFFF00FF0000FFFF00B1
:103B1C00FF0000FFFF00FF0000FFFF00FF0000FFA1
:103B2C00FF00FF0000FFFF00FF0000FFFF00FF0091
:103B3C0000FFFF00FF0000FFFF00FF0000FFFF0081
:103B4C00FF0000FFFF00FF0000FFFF00FF0000FF71
:103B5C00FF00FF0000FFFF00FF0000FFFF00FF0061
:103B6C0000FFFF00FF0000FFFF00FF0000FFFF0051
:103B7C00FF0000FFFF00FF0000FFFF00FF0000FF41
:103B8C00FF00FF0000FFFF00FF0000FFFF00FF0031
:103B9C0000FFFF00FF0000FFFF00FF0000FFFF0021
:103BAC00FF0000FFFF00FF0000FFFF00FF0000FF11
:103BBC00FF00FF0000FFFF00FF0000FFFF00FF0001
:103BCC0000FFFF00FF0000FFFF00FF0000FFFF00F1
:103BDC00FF0000FFFF00FF0000FFFF00FF0000FFE1
:103BEC00FF00FF0000FFFF00FF0000FFFF00FF00D1
:103BFC0000FFFF00FF0000FFFF00FF0000FFFF00C1
:103C0C00FF0000FFFF00FF0000FFFF00FF0000FFB0
:103C1C00FF00FF0000FFFF00FF0000FFFF00FF00A0
:103C2C0000FFFF00FF0000FFFF00FF0000FFFF0090
:103C3C00FF0000FFFF00FF0000FFFF00FF0000FF80
:103C4C00FF00FF0000FFFF00FF0000FFFF00FF0070
:103C5C0000FFFF00FF0000FFFF00FF0000FFFF0060
:103C6C00FF0000FFFF00FF0000FFFF00FF0000004F
:103C7C0000000000000007000A0D00000500080B02
:103C8C0000000600090C00000100031B000FD526E4
:103C9C000EFF260E01880000000000200000E0024C
:103CAC000032000120200288140007D7060700000C
:103CBC00E003003AC0702B01002002003700002006
:103CCC00010020810F700100320F0007000020005E
:103CDC0000E002003200000200000066BB0200009F
:103CEC00000040DA0000FE2039200000E002003223
:103CFC00002020900188000006A102888004780032
:103D0C0000EB1F0037E2844454A0B49905BAE28456
:103D1C004454A0B49906BAE2844454A0B40006EB0F
:103D2C00476FDEFD07B2AE0188636CE103003A0A0F
:103D3C00D8010000EB0E0037606CE108003A004D32
:103D4C00EB0A05E80200393420EC0AF0A08B05E9F7
:103D5C00F9FF3E0400376168E10100320086EB0B8D
:103D6C00000719C7BA1905BA0E04E003003A0A0095
:103D7C00E0DBFF3A000006FE07B2AE02888A047848
:103D8C00F5FF370CD0A3E20F4D1C003989027835B2
:103D9C004DBA0A05E80200393420EC0AF0A08B0574
:103DAC00E90F0032254DBA0A05E80200393420EC3F
:103DBC000AF0A08B05E90800320C00E00600321571
:103DCC00CDBA0A05E80200393420EC0AF0A08B05C4
:103DDC00E98984E854A0B40B00E0E2FF3A00000645
:103DEC009902BA055D788B05E9F7FF32C82ADE0522
:103DFC005D788B05E9F3FF320C00E0F1FF3219DD41
:103E0C00BAEEFF373600F8809FBE829FBE849FBEFD
:103E1C00869FBE0400FA04A8A9001180100798A17F
:103E2C001180010F781E00906400600000E0080013
:103E3C003A9E00900002200080600000E003003AEF
:103E4C00F611A81D82A8B000371E00906400600017
:103E5C0000E070003A9E009000022000806000009C
:103E6C00E06B0032F6D1BF6140600004E0440032E8
:103E7C00F611A9F631A81E00780040784EF0B74E26
:103E8C00D0BF0080FBE40F50310032E40F500C0027
:103E9C003CE10F50180032E10F5003003C0000E0F1
:103EAC001200322D0037E20F50140032E30F501580
:103EBC000032280037E70F50230032E70F50030081
:103ECC003CE60F50110032210037E80F501E003233
:103EDC00E90F501500321C0037DA39071A0037EF9A
:103EEC003907DA4D07170037E43907908F8814002B
:103EFC0037E01E21908F88110037033A071000BE5F
:103F0C00C08F88D18F88801F21908F88013A07C776
:103F1C004607080037094507908F880500370000D1
:103F2C0000030037000000010037000000000826E5
:103F3C00808F88EC71EF1D82A85F0037F6D1BF62CD
:103F4C0040600004E01000321E0090700060000021
:103F5C00E00C003A818F80ECD1BF0080FB008040E8
:103F6C009E0078814078014878ECD1BF0040E8ECA5
:103F7C00F1B71D82A80E0037F6D1BF624060000475
:103F8C00E00800321E00907000600000E004003277
:103F9C0010C0B3F4F1B7F631A90200371D82A83D69
:103FAC0000373C00371E00906400600000E01D00EC
:103FBC00329E00900002200080600000E018003A61
:103FCC0000000000000000000000000000000000E5
:103FDC000000908F801040780080FB801188908FBB
:103FEC00800000E8908F881D82A8000000001180DE
:103FFC006100600000E0FCFF3A00000000000000DF
:10400C0000000000001B00371E00906400600000E0
:10401C00E01700329E00900002200080600000E05B
:10402C001200329E00900000280080600000E00D1D
:10403C00003A908F801040780080FB801188908F20
:10404C00800000E8908F881D82A80000000011807D
:10405C006100600000E0FCFF3A0080FA4F03BE4FA5
:10406C0002BE4F01BE4F00BE3600F90040063600BE
:10407C00F8809FBE829FBE849FBE869FBE0200FAC0
:10408C00008080211280014178811D23827078008C
:10409C0080800000E8008088018080F07F20808F85
:1040AC00500100360030EF018080108080808F50EE
:1040BC0008003A1080800000E8108088118080F0A1
:1040CC007F20808F500100360230EF10C0B32125C5
:1040DC0007000F789E007800A7200080405001BE9A
:1040EC004000BE0000786100600040780004E016DB
:1040FC0000329E007880A6200080403002BE200353
:10410C00BE1000200100206011B800007281807286
:10411C000201738381739E027884A620048242007C
:10412C009ABE0292BE9E007870A62000804011C0FC
:10413C00B30148780168A90080FA4F03BE4F02BE54
:10414C004F01BE4F00BE3600F90040063600F88025
:10415C009FBE829FBE849FBE869FBE881F78000034
:10416C00FA60808061138001417881A52382707888
:10417C006080800000E8608088618080F03F208053
:10418C008F500100360C30EF618080708080808F02
:10419C005008003A7080800000E870808871808040
:1041AC00F03F20808F500100360E30EF20C0B3D688
:1041BC00240700047820C0B3D3240781A620010073
:1041CC00403002BE2003BE1000200100206011B858
:1041DC0000007281807202017383817384A62004B3
:1041EC000244009ABE0292BE20C0B3C2240771A63C
:1041FC002001004011C0B30148780368A90080FA7F
:10420C004F04784F03BE4F02BE4F01BE4F00BE3667
:10421C0000F90040063600F8809FBE829FBE849F46
:10422C00BE869FBE881F780000FAC08080617880AF
:10423C0001417881ED23827078C080800000E8C055
:10424C008088C18080F03F20808F5001003618306C
:10425C00EFC18080D08080808F5008003AD0808061
:10426C000000E8D08088D18080F03F20808F500102
:10427C0000361A30EF30C0B393240700047830C0F6
:10428C00B390240781A6200100403002BE2003BE5B
:10429C001000200100206011B800007281807202B1
:1042AC00017383817384A620040244009ABE029297
:1042BC00BE30C0B37F240771A62001004011C0B3EB
:1042CC000148780728A90080FA4F04784F03BE4FA5
:1042DC0002BE4F01BE4F00BE3600F900400636004C
:1042EC00F8809FBE829FBE849FBE869FBE0000FA50
:1042FC00518080408080808F501300320188A9004B
:10430C000000508080819D2361407880407810C0EF
:10431C00B3692C070004E0F8FF325080800000E8FD
:10432C00508088518080F00720808F500300360A1F
:10433C0030EF0100370188A90080FA4F03BE4F020D
:10434C00BE4F01BE4F00BE3600F90040063600F8E5
:10435C00809FBE829FBE849FBE869FBE0000FAB126
:10436C008080A08080808F501300320388A90000C9
:10437C0000B0808081E52361407880407820C0B314
:10438C00442C070004E0F8FF32B080800000E8B055
:10439C008088B18080F00720808F50030036163063
:1043AC00EF0100370388A90080FA4F03BE4F02BE0D
:1043BC004F01BE4F00BE3600F90040063600F880B3
:1043CC009FBE829FBE849FBE869FBE0000FA118155
:1043DC0080008180808F501300320748A9000000B4
:1043EC00108180812D2461407880407830C0B31FCB
:1043FC002C070004E0F8FF321081800000E81081E7
:10440C0088118180F00720808F500300362230EF16
:10441C000100370748A90080FA4F03BE4F02BE4F78
:10442C0001BE4F00BE3600F90040063600F8809FF2
:10443C00BE829FBE849FBE869FBE0200FA3A0807CA
:10444C00000F788160801E007871989810C0B310AE
:10445C00F2B70BA8A90080FA4F03BE4F02BE4F0162
:10446C00BE4F00BE3600F90040063600F8809FBEF5
:10447C00829FBE849FBE869FBE0200FA250807005D
:10448C000F78D160801E007861809810C0B310F254
:10449C00B70C48A90080FA4F03BE4F02BE4F01BEB5
:1044AC004F00BE3600F90040063600F8809FBE82F1
:1044BC009FBE849FBE869FBE0200FA100807000FA5
:1044CC00780161801E007801B89810C0B310F2B763
:1044DC000CA8A90080FA4F03BE4F02BE4F01BE4F7D
:1044EC0000BE3600F90040063600F8809FBE829F61
:1044FC00BE849FBE869FBE0200FAFB0707000F78A2
:10450C001161801E007811109910C0B310F2B70C15
:10451C00C8A90080FA4F03BE4F02BE4F01BE4F0028
:10452C00BE3600F90040063600F8809FBE829FBE62
:10453C00849FBE869FBE0200FAE60707000F782113
:10454C0061801E007841109810C0B310F2B70CE8CF
:10455C00A90080FA4F03BE4F02BE4F01BE4F00BEF2
:10456C003600F90040063600F8809FBE829FBE845C
:10457C009FBE869FBE0200FAD50707000F783161F7
:10458C00801E007811109910C0B310F2B70D08A955
:10459C000080FA4F03BE4F02BE4F01BE4F00BE3625
:1045AC0000F90040063600F8809FBE829FBE849FB3
:1045BC00BE869FBE0200FAC00707000F78416180DB
:1045CC001E007801B89810C0B310F2B70D28A900DE
:1045DC0080FA4F03BE4F02BE4F01BE4F00BE3600E5
:1045EC00F90040063600F8809FBE829FBE849FBEB5
:1045FC00869FBE0200FAAB0707000F785161801E40
:10460C00007861809810C0B310F2B70D48A90080F3
:10461C00FA4F03BE4F02BE4F01BE4F00BE3600F92B
:10462C000040063600F8809FBE829FBE849FBE86E7
:10463C009FBE0200FA920707000F786161801E008E
:10464C007851289810C0B310F2B70D68A90080FA01
:10465C004F03BE4F02BE4F01BE4F00BE3600F900E5
:10466C0040063600F8809FBE829FBE849FBE869F08
:10467C00BE0200FA810707000F787161801E007876
:10468C0071989810C0B310F2B70D88A90080FA4F3A
:10469C0003BE4F02BE4F01BE4F00BE3600F90040B4
:1046AC00063600F8809FBE829FBE849FBE869FBE4A
:1046BC000200FA6C0707000F788161801E007841B8
:1046CC00109810C0B310F2B70DA8A90080FA4F03D0
:1046DC00BE4F02BE4F01BE4F00BE3600F900400671
:1046EC003600F8809FBE829FBE849FBE869FBE020E
:1046FC0000FA570707000F789161801E0078512847
:10470C009810C0B310F2B70DC8A90080FA4F03BEC1
:10471C004F02BE4F01BE4F00BE3600F900400600EE
:10472C0000FA0B68A90080FA0040060000FA3AEE85
:10473C00A80468A90080FA0040063600F8809FBEE5
:10474C00829FBE849FBE869FBE0200FA4AD0BF00E5
:10475C0004E0060032DA6AA9616080010F784A70C1
:10476C00EFD80AA80200373AEEA9CA40070248A9B6
:10477C000080FA4F03BE4F02BE4F01BE4F00BE3643
:10478C0000F9004006801F780000FAC09026905671
:10479C0088E0C820A05688209080B056880108A9CF
:1047AC000080FA4F00780040063600F8809FBE82E9
:1047BC009FBE849FBE869FBE0000FA02D2BF00043B
:1047CC00E0110032009080800040004E26008040B6
:1047DC001000780000E00A00320090808000400059
:1047EC004E260080401000786B4807009080000037
:1047FC00E80090880500370032EF2308A92108A9AA
:10480C00A948070308A90080FA4F03BE4F02BE4F08
:10481C0001BE4F00BE3600F9004006809FBE00006E
:10482C00FA3156800002200080600000E003003264
:10483C00C40AA910C0B30AF2B70088A90080FA4FC5
:10484C0000BE0040063600F8809FBE829FBE849F4B
:10485C00BE869FBE0400FAB07080808188162EEF51
:10486C002070809081882E70EFA300378181802E7C
:10487C00D0BF0080FB0008DE6100600040780004BF
:10488C00E09800322ED0BF80407840E020B2220762
:10489C00000F782ED0BF80407840E02013230720F3
:1048AC0047981E00780000E08B00329181802ED05A
:1048BC00BF0080FB0008DE6100600040780004E06F
:1048CC004200329E007800A7200080403002BE20BB
:1048DC0003BE2000200100206011B800006281801E
:1048EC0062020163838163E00F50E08F58E00F593F
:1048FC00E08F597200329E0078A0A7200080409073
:10490C0000782E40900080FB0000E90008DE61007A
:10491C00600040780004E06600329E007880A7209A
:10492C000080409000782E40900080FB0000E9123F
:10493C0000200010DD8100701E017880A72000008F
:10494C00410108789E007880A6200080403002BE8D
:10495C002003BE2000200100206011B800007281ED
:10496C0080720201738381739E027884A620048274
:10497C0042009ABE0292BE9E007870A62000804033
:10498C0011C0B30148784100379E007800A7200081
:10499C0080403002BE2003BE400020010020601188
:1049AC00B8000062818062020163838163E00F5072
:1049BC00E08F58E00F59E08F593000329E0078E0BC
:1049CC00A7200080409000782E40900080FB0000D3
:1049DC00E90008DE6100600040780004E024003249
:1049EC009E0078C0A7200080409000782E40900058
:1049FC0080FB0000E91200200010DD8100701E0118
:104A0C0078C0A7200000410108789E007880A6207D
:104A1C000080403002BE2003BE4000200100206018
:104A2C0011B80000728180720201738381739E023F
:104A3C007884A620048242009ABE0292BE9E007820
:104A4C0070A62000804011C0B30148782ED0BF0062
:104A5C0040E82EF0B72ED0BFEF4F505AFF3600482B
:104A6C00A90080FA4F03BE4F02BE4F01BE4F00BEDD
:104A7C003600F90040063600F8809FBE829FBE8447
:104A8C009FBE869FBE0400FA907180B08188322E42
:104A9C00EF007180C081883470EFA30037B1818042
:104AAC0034D0BF0080FB0008DE610060004078005D
:104ABC0004E098003234D0BF80407800E220F72127
:104ACC0007000F7834D0BF80407800E220582207CE
:104ADC002047981E00780000E08B0032C1818034A2
:104AEC00D0BF0080FB0008DE61006000407800044D
:104AFC00E04200329E007800A7200080403002BEC9
:104B0C002003BE2000200100206011B8000062814B
:104B1C008062020163838163E00F50E08F58E00FE5
:104B2C0059E08F597200329E0078A0A72000804077
:104B3C009000782E40900080FB0000E90008DE61B8
:104B4C0000600040780004E06600329E007880A788
:104B5C00200080409000782E40900080FB0000E9FF
:104B6C001200200010DD8100701E017880A720004B
:104B7C0000410108789E007880A620008040300219
:104B8C00BE2003BE2000200100206011B80000727E
:104B9C008180720201738381739E027884A6200443
:104BAC008242009ABE0292BE9E007870A6200080BF
:104BBC004011C0B30148784100379E007800A7200F
:104BCC000080403002BE2003BE4000200100206067
:104BDC0011B8000062818062020163838163E00F7F
:104BEC0050E08F58E00F59E08F593000329E00781A
:104BFC00E0A7200080409000782E40900080FB00C1
:104C0C0000E90008DE6100600040780004E0240048
:104C1C00329E0078C0A7200080409000782E4090F3
:104C2C000080FB0000E91200200010DD8100701EE6
:104C3C000178C0A7200000410108789E007880A66A
:104C4C00200080403002BE2003BE40002001002026
:104C5C006011B80000728180720201738381739EAF
:104C6C00027884A620048242009ABE0292BE9E0064
:104C7C007870A62000804011C0B301487834D0BFB2
:104C8C000040E834F0B734D0BFEF4F505AFF360035
:104C9C0068A90080FA4F03BE4F02BE4F01BE4F0001
:104CAC00BE3600F90040063600F8809FBE829FBEDB
:104CBC00849FBE869FBE0400FA707280E081884E8D
:104CCC002EEFE07180F081883A70EFA30037E1811C
:104CDC00803AD0BF0080FB0008DE610060004078A5
:104CEC000004E09800323AD0BF804078C0E3203C0A
:104CFC002107000F783AD0BF804078C0E3209D2177
:104D0C00072047981E00780000E08B0032F181806C
:104D1C003AD0BF0080FB0008DE61006000407800E4
:104D2C0004E04200329E007800A720008040300250
:104D3C00BE2003BE2000200100206011B8000062DC
:104D4C00818062020163838163E00F50E08F58E041
:104D5C000F59E08F597200329E0078A0A720008076
:104D6C00409000782E40900080FB0000E90008DEA7
:104D7C006100600040780004E06600329E0078809C
:104D8C00A7200080409000782E40900080FB00000F
:104D9C00E91200200010DD8100701E017880A72030
:104DAC000000410108789E007880A62000804030E9
:104DBC0002BE2003BE2000200100206011B80000BC
:104DCC00728180720201738381739E027884A620A3
:104DDC00048242009ABE0292BE9E007870A6200009
:104DEC00804011C0B30148784100379E007800A77D
:104DFC00200080403002BE2003BE40002001002075
:104E0C006011B8000062818062020163838163E0FB
:104E1C000F50E08F58E00F59E08F593000329E0050
:104E2C0078E0A7200080409000782E40900080FB16
:104E3C000000E90008DE6100600040780004E02416
:104E4C0000329E0078C0A7200080409000782E4051
:104E5C00900080FB0000E91200200010DD81007042
:104E6C001E0178C0A7200000410108789E007880C0
:104E7C00A6200080403002BE2003BE40002001006E
:104E8C00206011B8000072818072020173838173FB
:104E9C009E027884A620048242009ABE0292BE9E94
:104EAC00007870A62000804011C0B30148783AD039
:104EBC00BF0040E83AF0B73AD0BFEF4F505AFF3638
:104ECC000268A90080FA4F03BE4F02BE4F01BE4FCD
:104EDC0000BE3600F90040063600F8809FBE829F67
:104EEC00BE849FBE869FBE0400FA507380108288D9
:104EFC006A2EEFC072802082884070EFA3003711B9
:104F0C00828040D0BF0080FB0008DE610060004062
:104F1C00780004E098003240D0BF80407880E520D3
:104F2C00812007000F7840D0BF80407880E520E2D8
:104F3C0020072047981E00780000E08B0032218269
:104F4C008040D0BF0080FB0008DE6100600040782C
:104F5C000004E04200329E007800A7200080403020
:104F6C0002BE2003BE2000200100206011B800000A
:104F7C0062818062020163838163E00F50E08F588D
:104F8C00E00F59E08F597200329E0078A0A72000E4
:104F9C0080409000782E40900080FB0000E90008D3
:104FAC00DE6100600040780004E06600329E00780C
:104FBC0080A7200080409000782E40900080FB005D
:104FCC0000E91200200010DD8100701E017880A71E
:104FDC00200000410108789E007880A620008040C7
:104FEC003002BE2003BE2000200100206011B8005A
:104FFC0000728180720201738381739E027884A691
:10500C0020048242009ABE0292BE9E007870A620B6
:10501C0000804011C0B30148784100379E007800F1
:10502C00A7200080403002BE2003BE4000200100BB
:10503C00206011B800006281806202016383816389
:10504C00E00F50E08F58E00F59E08F593000329E3E
:10505C000078E0A7200080409000782E40900080DF
:10506C00FB0000E90008DE6100600040780004E00D
:10507C002400329E0078C0A7200080409000782E3B
:10508C0040900080FB0000E91200200010DD810040
:10509C00701E0178C0A7200000410108789E00789E
:1050AC0080A6200080403002BE2003BE40002001BC
:1050BC0000206011B800007281807202017383813C
:1050CC00739E027884A620048242009ABE0292BE8D
:1050DC009E007870A62000804011C0B30148784033
:1050EC00D0BF0040E840F0B740D0BFEF4F505AFF60
:1050FC00360968A90080FA4F03BE4F02BE4F01BEAD
:10510C004F00BE3600F90040060000FAC028A9FF87
:10511C00FF370000FAC068A9FFFF370000FAC0484B
:10512C00A9FFFF370000FAC088A9FFFF370000FA7B
:10513C00FFFF3700000503F0A2889FBE8A9FBE8C3C
:10514C001F78FA00070101336450E14F00326420EC
:10515C00E152003203826C07003B0905D00306D0F4
:10516C00820F540C065D020039020032890178036B
:10517C00067885825504003D0003FD8103FD850200
:10518C00EA8B8542840F7202003B600010E08018AD
:10519C006011B80005EB7A28E10A0039060078C7DF
:1051AC005DDDF707B28780752D00378281710A01AA
:1051BC00786105608180D10080D38502E9F9FF3BDD
:1051CC0006044087844802003B600414E0841C09F8
:1051DC0088A30700328A817182817161016489041C
:1051EC00D10884D38B05E81700370978A313003A4C
:1051FC000B00E01300348B05E908044489844C0A45
:10520C0044740978A30D003A0B00E00700348B05B9
:10521C00E908044489844C01003A0B00200978A366
:10522C00F7FF320001EB0200378281710A017870BE
:10523C0000070CF0A701F0A0B900376420E10200D0
:10524C003A838F6CB900330801BE0200BEB200373E
:10525C00889FBE8A9FBE8C1F789D0007A4003303D5
:10526C00866C6450E12E00326420E13300326150D0
:10527C00E12F00326120E1310032858555EB07B01A
:10528C0009002008042005003708044489844C0ACE
:10529C00003106034387834B00015381815BF8FF88
:1052AC00330203BE0800A008044489844CF6FF397D
:1052BC00C639DD8301730100321300208904D10843
:1052CC0084D30998A30500320800A70300A0890421
:1052DC00D10884D38B05E88904D10884D30001EB71
:1052EC000281D234000701F0A10CF0A701F0A07CE0
:1052FC0000376420E17E00320801BE0200BEF7FFD9
:10530C00376120E17900326000B8F3FF37000020EC
:10531C0001F827F0FF37140020F30137F4FF2FF1C9
:10532C0001370001BE4400070470A703F0A103F885
:10533C00A313003A6509B11000320900356928E160
:10534C0002003501002800000500004081804885DE
:10535C0002E9FCFF3A000006F88F42050035810097
:10536C00D10080D38502E8FCFF3A0000068000EBF8
:10537C000000054F89DE820178EE01376011B8FC20
:10538C0001378100206180550B003D0B002061FE30
:10539C002F0100E11D00348281716101648904D107
:1053AC000884D30000E8FAFF3A710020610064031E
:1053BC000070020060090032610444E0844C0988EA
:1053CC00A50500328B05E86808E102003A8904D192
:1053DC000884D3F20F200258E105003DC75DDDF9CA
:1053EC0007B28980750800780000060BF8278B003F
:1053FC0078000005C70ADEF107B2F50FB2080032DB
:10540C00E1CF420200320170A0240005810F70012F
:10541C000032040805440005810F7002003A1400A4
:10542C00058502E900004081C048FCFF3B0170A0EB
:10543C002400050004BEE9FF070003BE0405BE02FC
:10544C0000BEE5FF07844F750000060200BE6450E5
:10545C00E10500366420E10200360968A301003A38
:10546C000800BE0160A04F06784F05BE4F04BE0079
:10547C000006F0FF2FF1FF27F9FF37889FBE8A9FA8
:10548C00BE8C1F78E4FF07EBFF3303866C6450E19E
:10549C002400326420E12700326150E122003261A5
:1054AC0020E12100328B8542EB07B10134B8003A80
:1054BC00B808044289844A013AB80030B888804060
:1054CC0009014A0400330000408180480201498BE5
:1054DC0005E9C909DD830170010032130020C814ED
:1054EC00DE4814DD4709DE1200B2C808DE088470FD
:1054FC0085FF0701F0A10CF0A701F0A0CDFF3761EB
:10550C0020E1CFFF320801BE0200BEF7FF37615029
:10551C00E1FCFF3AC9FF37889FBE8A9FBE8C1F787B
:10552C000004BE9AFF070478A326003A6120E12507
:10553C00003209F8A325003A6420E1210032F50776
:10554C00B10508A30200320000408180486044B8D5
:10555C000310200200200000408180480805448987
:10556C00854C0A05418B85490A05508B85580300EB
:10557C00330A00BE0204748384748301D10281D384
:10558C00830F71F0FF3A8904D10884D360014982FA
:10559C000178C1ADDEFB07B04DFF0798FF370960FE
:1055AC00A00800BE95FF37120220A29088F0FF2FB2
:1055BC00F1FF2790FF376022B80602200000D0814F
:1055CC0080D20482D28582D20000A0020252838251
:1055DC005A03003102024283824A0000A10603E909
:1055EC00F3FF3A000006EFFF070400BE0000068838
:1055FC009FBE8A9FBE300442B0844A30054B9085D2
:10560C004B6000B10898BE0A90BE0440E105C8E1A9
:10561C0006D0E107D8E10200316800401008E84FDD
:10562C0005BE4F04BE000006889FBE8A9FBE300494
:10563C00BE2005BE04185405985C06185D07985DDD
:10564C001100200440E105C8E106D0E107D8E101D2
:10565C0000398000EB1088104F05BE4F04BE0000CF
:10566C00061200FA889FBE8A9FBE8C9FBEE0B79F31
:10567C00F1B79F82BF9F93BF9F0605BE0404BE0077
:10568C0000EBD0B79FC0B79FB0B79FA0B79F90B7A4
:10569C009F0006785FB197CFB0978201413FB097DA
:1056AC000200E004003D3700077E8057C0FF07036F
:1056BC0000373300077E8057CFFF07DFB6970D000A
:1056CC00E00C00356FB297FFB2970FBB979FBB975B
:1056DC001000200100206011B80002728182720259
:1056EC0003738383731B00070C06E8010420810FEE
:1056FC0056E0FF3A0D00E004003D0802BE0A03BE6E
:10570C007E8057A3FF075FA8970000E005003A1FB3
:10571C00B297AFB2973FB397CFB3970900076FB06B
:10572C0097FFB0970FB9979FB9974F06BE4F05BE1D
:10573C004F04BE0080FA000006010007000006A41A
:10574C00B79FB5B79FC6B79FD7B79F0000064F0945
:10575C00DE828171B3B79F4F01DE81804082807001
:10576C00A1B79F8FB0974F09DE00004002007090E8
:10577C00B79F7FA8974F01DE81804082807081B7F0
:10578C009F0D00074F3ADE000040040070F0AF9F01
:10579C0008000704024285824A06034B87834BDFCD
:1057AC00FF070802BE0A03BE0000062FB297BFB265
:1057BC00974FB397DFB397000006881F7818002027
:1057CC00881F7889FF078F87E94F047800000680CF
:1057DC001FEB84FF078F87E9000006889FBE8A9F16
:1057EC00BEE00F50E08F58E00F59E08F590C003D90
:1057FC006044B86055B800005481805C02015D8340
:10580C00815D18002015000708003D1800070004F2
:10581C00EB0500370004EB0F000702003D120007F8
:10582C00180020DCFF070800E00600326022B86098
:10583C0033B800005281805A02015B83815B4F05B3
:10584C00BE4F04BE000006E00F52E08F5AE00F5B23
:10585C00E08F5B0000066044B86055B804025485C4
:10586C00825C06035D87835D000006889FBE8A9F6D
:10587C00BE8C1F78E00F50E08F58E00F59E08F5925
:10588C000D003D6044B86055B800005481805C0246
:10589C00015D83815D1C00200820E109A8E10AB0AC
:1058AC00E10BB8E10D003D0800370006EBE00F52AC
:1058BC00E08F5AE00F5BE08F5B06003D6044B86000
:1058CC0055B804025485825C06035D87835DAAFF8C
:1058DC00070C00E00600326022B86033B8000052BA
:1058EC0081805A02015B83815B4F06784F05BE4F66
:1058FC0004BE000006889FBE8A9FBE841F7866FE89
:10590C00074F0078110033F0FF2F838F6C06003B9C
:10591C000405650A00A708003709F0A61000200846
:10592C000037820F54838F5C030039100020010074
:10593C003E00002009F0A70000EA4F05BE4F04BE50
:10594C000000E0000006881F780304780300E007DD
:10595C00003D600010E08018600119E08119020020
:10596C003B01F02D03003704000708F0A701F0A05D
:10597C004F0478000006889FBE8A9FBE0082700488
:10598C0002710482712600320004BE0200BE601156
:10599C00B86B09209502200182CF0A00390541B16C
:1059AC000082CF0700390541B10982CF04003905C7
:1059BC0041B10882CF0100390541B10542521200B4
:1059CC00320A003B8281716101648100D10080D375
:1059DC008984D30884D38B05E80442E8F7FF3A079F
:1059EC00003708044489844C0000488180488B05AA
:1059FC00E90442E9F9FF3AD8FD074F05BE4F04BE52
:105A0C00000006800178020037B159780201E902E2
:105A1C0000E0FCFF3A000006800178020037815953
:105A2C00780201E90200E0FCFF3A0000068000EB7E
:105A3C00504A8B614A8B11C0B38094260148780080
:105A4C0000068094261004E002003A100020F4FFB7
:105A5C0007D2E624631C24504A83614A8309000759
:105A6C00920323030020000141818149524A8B6338
:105A7C004A8B03007800F0A1000006020AB9001B53
:105A8C00B90200B88100428100430000060C00FA04
:105A9C00881F78400798214F98324F984E01902ECE
:105AAC0048908080FB2003200088B900007800001B
:105ABC00413081883081801000788000783E489099
